{
  "_format": "hh-sol-artifact-1",
  "contractName": "SwapContract",
  "sourceName": "contracts/Swap.sol",
  "abi": [
    {
      "inputs": [],
      "stateMutability": "payable",
      "type": "constructor"
    },
    {
      "inputs": [
        {
          "internalType": "address",
          "name": "tokenSendAddress",
          "type": "address"
        },
        {
          "internalType": "address",
          "name": "tokenRecieveMesureAddress",
          "type": "address"
        }
      ],
      "name": "calculateValue",
      "outputs": [
        {
          "internalType": "uint256",
          "name": "value",
          "type": "uint256"
        }
      ],
      "stateMutability": "view",
      "type": "function"
    },
    {
      "inputs": [],
      "name": "deployerAddress",
      "outputs": [
        {
          "internalType": "address",
          "name": "",
          "type": "address"
        }
      ],
      "stateMutability": "view",
      "type": "function"
    },
    {
      "inputs": [
        {
          "internalType": "address",
          "name": "tokenAddress",
          "type": "address"
        },
        {
          "internalType": "uint256",
          "name": "amount",
          "type": "uint256"
        },
        {
          "internalType": "address",
          "name": "recipientAddress",
          "type": "address"
        }
      ],
      "name": "distributeToken",
      "outputs": [],
      "stateMutability": "nonpayable",
      "type": "function"
    },
    {
      "inputs": [
        {
          "internalType": "address",
          "name": "sendTokenAddress",
          "type": "address"
        },
        {
          "internalType": "address",
          "name": "measureTokenAddress",
          "type": "address"
        },
        {
          "internalType": "address",
          "name": "receiveTokenAddress",
          "type": "address"
        },
        {
          "internalType": "uint256",
          "name": "amount",
          "type": "uint256"
        },
        {
          "internalType": "address",
          "name": "recipientAddress",
          "type": "address"
        }
      ],
      "name": "swap",
      "outputs": [],
      "stateMutability": "payable",
      "type": "function"
    }
  ],
  "bytecode": "0x6080604052336000806101000a81548173ffffffffffffffffffffffffffffffffffffffff021916908373ffffffffffffffffffffffffffffffffffffffff160217905550610c73806100536000396000f3fe60806040526004361061003f5760003560e01c8063677fdac814610044578063714a091d146100605780639fb27b4314610089578063efdee94f146100c6575b600080fd5b61005e60048036038101906100599190610732565b6100f1565b005b34801561006c57600080fd5b50610087600480360381019061008291906107a9565b61041e565b005b34801561009557600080fd5b506100b060048036038101906100ab91906106f6565b610545565b6040516100bd9190610a9b565b60405180910390f35b3480156100d257600080fd5b506100db61067e565b6040516100e891906109c0565b60405180910390f35b6000859050600084905060006101078888610545565b905060006101158789610545565b90506000670de0b6b3a7640000838861012e9190610af8565b6101389190610ac7565b90506000670de0b6b3a764000083896101519190610af8565b61015b9190610ac7565b9050818673ffffffffffffffffffffffffffffffffffffffff166370a08231336040518263ffffffff1660e01b815260040161019791906109c0565b60206040518083038186803b1580156101af57600080fd5b505afa1580156101c3573d6000803e3d6000fd5b505050506040513d601f19601f820116820180604052508101906101e79190610821565b1015610228576040517f08c379a000000000000000000000000000000000000000000000000000000000815260040161021f90610a3b565b60405180910390fd5b808573ffffffffffffffffffffffffffffffffffffffff166370a08231306040518263ffffffff1660e01b815260040161026291906109c0565b60206040518083038186803b15801561027a57600080fd5b505afa15801561028e573d6000803e3d6000fd5b505050506040513d601f19601f820116820180604052508101906102b29190610821565b10156102f3576040517f08c379a00000000000000000000000000000000000000000000000000000000081526004016102ea90610a5b565b60405180910390fd5b8573ffffffffffffffffffffffffffffffffffffffff166323b872dd3330856040518463ffffffff1660e01b8152600401610330939291906109db565b602060405180830381600087803b15801561034a57600080fd5b505af115801561035e573d6000803e3d6000fd5b505050506040513d601f19601f8201168201806040525081019061038291906107f8565b508473ffffffffffffffffffffffffffffffffffffffff1663a9059cbb88836040518363ffffffff1660e01b81526004016103be929190610a12565b602060405180830381600087803b1580156103d857600080fd5b505af11580156103ec573d6000803e3d6000fd5b505050506040513d601f19601f8201168201806040525081019061041091906107f8565b505050505050505050505050565b60008054906101000a900473ffffffffffffffffffffffffffffffffffffffff1673ffffffffffffffffffffffffffffffffffffffff163373ffffffffffffffffffffffffffffffffffffffff16146104ac576040517f08c379a00000000000000000000000000000000000000000000000000000000081526004016104a390610a7b565b60405180910390fd5b60008390508073ffffffffffffffffffffffffffffffffffffffff1663a9059cbb83856040518363ffffffff1660e01b81526004016104ec929190610a12565b602060405180830381600087803b15801561050657600080fd5b505af115801561051a573d6000803e3d6000fd5b505050506040513d601f19601f8201168201806040525081019061053e91906107f8565b5050505050565b60008173ffffffffffffffffffffffffffffffffffffffff166370a08231306040518263ffffffff1660e01b815260040161058091906109c0565b60206040518083038186803b15801561059857600080fd5b505afa1580156105ac573d6000803e3d6000fd5b505050506040513d601f19601f820116820180604052508101906105d09190610821565b8373ffffffffffffffffffffffffffffffffffffffff166370a08231306040518263ffffffff1660e01b815260040161060991906109c0565b60206040518083038186803b15801561062157600080fd5b505afa158015610635573d6000803e3d6000fd5b505050506040513d601f19601f820116820180604052508101906106599190610821565b670de0b6b3a764000061066c9190610af8565b6106769190610ac7565b905092915050565b60008054906101000a900473ffffffffffffffffffffffffffffffffffffffff1681565b6000813590506106b181610bf8565b92915050565b6000815190506106c681610c0f565b92915050565b6000813590506106db81610c26565b92915050565b6000815190506106f081610c26565b92915050565b6000806040838503121561070957600080fd5b6000610717858286016106a2565b9250506020610728858286016106a2565b9150509250929050565b600080600080600060a0868803121561074a57600080fd5b6000610758888289016106a2565b9550506020610769888289016106a2565b945050604061077a888289016106a2565b935050606061078b888289016106cc565b925050608061079c888289016106a2565b9150509295509295909350565b6000806000606084860312156107be57600080fd5b60006107cc868287016106a2565b93505060206107dd868287016106cc565b92505060406107ee868287016106a2565b9150509250925092565b60006020828403121561080a57600080fd5b6000610818848285016106b7565b91505092915050565b60006020828403121561083357600080fd5b6000610841848285016106e1565b91505092915050565b61085381610b52565b82525050565b6000610866603283610ab6565b91507f596f757220617373657420697320736d616c6c6572207468616e20616d6f756e60008301527f7420796f752077616e7420746f2073656e6400000000000000000000000000006020830152604082019050919050565b60006108cc605583610ab6565b91507f436f6e7472616374206173736574206f66207468652063757272656e6379207260008301527f6563697069656e742077616e7420697320736d616c6c6572207468616e20616d60208301527f6f756e7420796f752077616e7420746f2073656e6400000000000000000000006040830152606082019050919050565b6000610958602883610ab6565b91507f416e796f6e6520627574206465706f7965722063616e2064697374726962757460008301527f6520746f6b656e210000000000000000000000000000000000000000000000006020830152604082019050919050565b6109ba81610b90565b82525050565b60006020820190506109d5600083018461084a565b92915050565b60006060820190506109f0600083018661084a565b6109fd602083018561084a565b610a0a60408301846109b1565b949350505050565b6000604082019050610a27600083018561084a565b610a3460208301846109b1565b9392505050565b60006020820190508181036000830152610a5481610859565b9050919050565b60006020820190508181036000830152610a74816108bf565b9050919050565b60006020820190508181036000830152610a948161094b565b9050919050565b6000602082019050610ab060008301846109b1565b92915050565b600082825260208201905092915050565b6000610ad282610b90565b9150610add83610b90565b925082610aed57610aec610bc9565b5b828204905092915050565b6000610b0382610b90565b9150610b0e83610b90565b9250817fffffffffffffffffffffffffffffffffffffffffffffffffffffffffffffffff0483118215151615610b4757610b46610b9a565b5b828202905092915050565b6000610b5d82610b70565b9050919050565b60008115159050919050565b600073ffffffffffffffffffffffffffffffffffffffff82169050919050565b6000819050919050565b7f4e487b7100000000000000000000000000000000000000000000000000000000600052601160045260246000fd5b7f4e487b7100000000000000000000000000000000000000000000000000000000600052601260045260246000fd5b610c0181610b52565b8114610c0c57600080fd5b50565b610c1881610b64565b8114610c2357600080fd5b50565b610c2f81610b90565b8114610c3a57600080fd5b5056fea2646970667358221220d6c6378b2194f821cf0c3c930b1e047377867de020eebc44867364cb64129f1d64736f6c63430008000033",
  "linkReferences": {},
  "deployedLinkReferences": {}
}